:020000040800F2
:1000000000060020490200085102000853020008BF
:1000100055020008570200085902000800000000BD
:100020000000000000000000000000005B0200086B
:100030005D020008000000005F0200086102000885
:1000400063020008630200086302000863020008FC
:1000500063020008630200086302000863020008EC
:1000600063020008630200086302000863020008DC
:1000700063020008630200086302000863020008CC
:100080006302000863020008630200080000000029
:1000900000000000000000000000000063020008F3
:1000A000630200086302000863020008630200089C
:1000B000630200086302000863020008630200088C
:1000C000630200086302000863020008630200087C
:1000D00063020008630200086302000800000000D9
:1000E00063020008630200086302000800000000C9
:1000F0000000000000000000000000006302000893
:1001000000000000630200086302000863020008A8
:1001100000000000000000000000000000000000DF
:10012000630200086302000863020008630200081B
:100130006302000800000000000000000000000052
:100140000000000000000000000000006302000842
:1001500063020008630200086302000863020008EB
:1001600063020008630200080000000000000000B5
:10017000000000000000000000000000000000007F
:100180000000000063020008000000000000000002
:10019000630200086302000800F002F800F044F86F
:1001A00014A696E8000CB244B344DA4501D100F03D
:1001B0003BF8BAE80F000FA696E83000A5EB04055F
:1001C00004EB0607AAEB0704A7F101074FEA151590
:1001D0004FEA3414A4F10104AC4201D300F024F836
:1001E00013F0010F18BFFB1A43F0010300F001F8F0
:1001F000DBE718473C0300004C0300007047000099
:100200000023002400250026103A28BF78C1FBD81F
:10021000520728BF30C148BF0B6070471FB500F0C0
:1002200079F91FBD10B510BDDFF80CD0FFF7F6FF50
:1002300000F0BEF800F02BF80000022003B4FFF736
:10024000F1FF03BC00F02CF809488047094800473B
:10025000FEE7FEE7FEE7FEE7FEE7FEE7FEE7FEE776
:10026000FEE7FEE704480549054A064B70470000D3
:10027000B1020008990100080000002000060020DB
:10028000000200200002002070477047704710B540
:100290000446AFF300802046BDE81040FFF7CEBF14
:1002A00001491820ABBEFEE726000200704700009F
:1002B0004EF68851CEF20001086840F470000860E4
:1002C00043F60002C4F20202106840F00100106020
:1002D00043F60801C4F202010020086011684FF6DD
:1002E000FF73CFF6F6631940116043F60403C4F2BE
:1002F000020343F21001C2F200411960116821F4B7
:100300008021116043F60C01C4F2020108604EF630
:100310000851CEF200014FF0006008607047000005
:1003200043F63001C4F20201086840F001000860A1
:10033000BFF34F8F0023C4F20203186820F00300BC
:100340001860186840F0020018602021C4F2020111
:10035000086820F00F000860086840F0010008609D
:100360000422C4F20202106820F0010010600C2187
:10037000C4F20201086820F003000860186820F049
:100380000C001860106820F002001060086820F06F
:100390000C000860186820F030001860106820F029
:1003A00004001060086820F030000860704700000A
:1003B00080B584B000200390FFF7B2FF00F05EF834
:1003C0003421C4F200014FF4FA600860FFE7102006
:1003D000C4F20200006810F0060F07D1FFE73421D5
:1003E000C4F2000140F26C70086045E01020C4F2D5
:1003F0000200006800F00600022807D1FFE7342160
:10040000C4F200014FF47A70086034E01020C4F2A6
:100410000200006800F00600062824D1FFE74FF430
:100420007A700290FFE7029840F26B71884219DC03
:10043000FFE702983421C4F2000108600020019017
:10044000FFE7019842F20F71884206DCFFE700BF28
:10045000FFE7019801300190F3E7FFE702980130D0
:100460000290E0E706E03421C4F2000140F26C7033
:100470000860FFE7FFE7FFE7A9E7000043F6400158
:10048000C4F20201086840F001000860BFF34F8F1A
:1004900043F62001C4F20201086840F00100086040
:1004A000086820F0010008602821C4F200010F2034
:1004B00008602C21C4F2000144F61F600860182176
:1004C000C4F20001086820F003000860086840F0EA
:1004D00060000860086840F0080008602021C4F24D
:1004E0000001086820F002000860086840F0010080
:1004F00008604FF08041086840F0800008603422B6
:10050000C4F200024FF47A701060086840F00100F5
:1005100008607047F1EE100A4FF6FF71C0F2C0316B
:1005200020EA010040F04070E1EE100A7047000040
:10053000400500080000002000060000000200083E
:0400000508000249A4
:00000001FF
